:1005A400001702170318031902150316031703177C
:1005B4000317031803190216031703180218031765
:1005C4000315021803170318021003150316021566
:1005D40003160317021703180319021A031B031F38
:1005E400031F03170318031902160317031803172D
:1005F4000318031F031F0216031703180317031816
:1006040003200320021F031B031F66200321032072
:10061400031F031B031F661F031B03190319031581
:10062400031A661A0319031503150317031666172D
:10063400041804180319031F031B031F6620032156
:100644000320031F031B031F661F031B0319031946
:100654000315031A661A03190319031F031B031F47
:10066400001A031A031A031B031B031A03190319A1
:100674000217031517150316031703180317041895
:100684000E18031704180E18661703180317031817
:1006940003200320021F031B031F662003210320E2
:1006A400031F031B031F661F041B0E1B03190319DF
:1006B4000315031A661A0319031503150317031602
:1006C4006617041804180319031F031B031F66206D
:1006D40003210320031F031B031F661F031B0319AE
:1006E40003190315031A661A03190319031F031BBD
:1006F400031F00180218031A03190D150315021815
:100704006616021702150000000F011502160217E3
:100714006618031702150216011502100215000FC0
:1007240001150216021702170318031902150218FD
:100734006617031902160317031600170119021B83
:10074400021B701A031A01190219031A031B021A55
:100754000D190317001866180319021A02190C1848
:100764000D170316011102110310030F0C100215CB
:10077400001F011A01186619031A011B021B031B2F
:10078400031B0C1A0D190317001F011A011866190F
:10079400031A011002100310031A0C180D17031684
:1007A400000F01150216021770180317021503151E
:1007B4000316661603160216031503100210011120
:1007C40001116610030F0C1A0219021603160318FE
:1007D40066180318021703160319000000170316FE
:1007E4000317011603170316031501100315031647
:1007F40002160D1703160315031003100E15040F2C
:100804000117031603170116031703160315011026
:100814000315031602160D1703160315031003150B
:1008240003160117031603170116031703160315FE
:1008340001100315031602160D17031603150310F2
:1008440003100E15040F0117031903190119031AD4
:100854000319031701160316031602160D170316C0
:100864000315031003100D1500190319031A031FB0
:10087400031B031B031A03170D16031603160D1788
:10088400011703170319031A021A021003170D168E
:10089400031601170319031903170319021F021B77
:1008A400031A031A0E1B0417021A031A031A0E1B47
:1008B400041A03190317031603170D160317031954
:1008C40001190319031A031F031B031B031A03173C
:1008D4000D16031603160317011703170319031A3A
:1008E400021A021003170D16031601170319031930
:1008F40003170319031F021B031A031A0E1B041701
:10090400021A031A031A0E1B0417161A031A031ADF
:100914000E1B041A031903170316030F0210031501
:100924000000000106011501260137014A015D019D
:10093400710188019F01B801D201EE00020405078C
:10094400090B0102040810204066065B067F063F7F
:100954005B7F6F777C395E7971007FBFDFEFF7FBD8
:0F096400FDFE00121478141200000000000000C5
:1011E600013E00073FC9E3CACFB6C800074B5765A3
:0511F6006C636F6D65E4
:10119A00C2957547FF7549FF85478D85498B4389F8
:0C11AA0011D2A9C2ABC28CC28ED2AF22FF
:0100060022D7
:041137007F017E00B6
:10113B00E4FDFCC3ED9FEC9E5015E4FBFA0BBB00EA
:0F114B00010AEB64644A70F50DBD00010C80E4ED
:01115A002272
:03000B0002115B84
:02115B00C0E0F2
:10115D00B29585468C85488A053CE53C6464700CE7
:0C116D00F53C053EE53E64057002F53ED1
:03117900D0E03291
:080973008B098A0A890B8D0C27
:10097B00E4F529C3E529940C748094804003020AA2
:10098B001CE529250CFFD3940B74809480401A74BA
:10099B00F42F25E02427F582E43409F583740193C1
:1009AB0025E0FFE49333FE8013EF25E02427F58247
:1009BB00E43409F583E493FE740193FFE52925E004
:1009CB002411F8A60608A607E50E6401450D70185C
:1009DB00E52925E02411F8C000E6FE08E67802CEF2
:1009EB00C313CE13D8F9801EE50E6403450D701C9E
:1009FB00E52925E02411F8C000E6FE08E67802C3DD
:100A0B0033CE33CED8F9D000A60608F60529020955
:100A1B007EE4F534F535AB09AA0AA90B8535828539
:100A2B0034831203C1600D74022535F535E435347A
:100A3B00F53480E2E4F52AF52BAB09AA0AA90B855C
:100A4B002B82852A831203C1F536E52B2401FFE4A3
:100A5B00352A8F82F5831203C1F537AC0FAD107EAB
:100A6B002E7FE01203EE8E2C8F2DE52D7802CEC358
:100A7B0013CE13D8F9F5338E327802C333CE33CE7F
:100A8B00D8F9FF7C007D051203EEC3E5339FF533E8
:100A9B00E5329EF532C28CD28EC3E52B9535E52A15
:100AAB0095344003020C67E53675F00A8485F038FF
:100ABB00E53675F00A8475F00A84ADF0E53675F00D
:100ACB006484FFE53890093E932F25E02411F8E666
:100ADB00FE08E6FFE538604BED6401700BEF780222
:100AEB00CEC313CE13D8F9FFED6403700BEF78026E
:100AFB00C333CE33CED8F9FFAB07AA06E4F9F87FA0
:100B0B00507EC3FDFC121008E47B0AFAF9F81204BC
:100B1B0079C3E49FFFE49EF5468F48F58CE54824A6
:100B2B000CF58AE53775F00A84E5F090094693F5E4
:100B3B0039E53775F00A8475F00A8485F03AE537A4
:100B4B0075F06484F53BE539FD7C00AE2CAF2D12BE
:100B5B0003EEAB07AA06E53B6401700BEAC313FE79
:100B6B00EB132BFBEE3AFAAF3AEF64016040EF70F8
:100B7B0032D3E539940474809480500DC3EB9533D4
:100B8B00F52FEA9532F52E8029AE02EB7802C333AE
:100B9B00CE33CED8F9FF7C007D051203EE8E2E8F5F
:100BAB002F800FEAC313F52EEB13F52F80048A2E3B
:100BBB008B2FAF387E00EF7004F52EF52FC3EB951E
:100BCB002FF531EA952EF530EF4E601FD28C852F25
:100BDB0029D3E529940074809480400F308FFD85D4
:100BEB00478D85498BC28F152980E6E531453060ED
:100BFB0021C28CC295853129D3E529940074809448
:100C0B0080400F308FFD85478D85498BC28F15290D
:100C1B0080E67402252BF52BE4352AF52AAB09AABD
:100C2B000AA90B852B82F5831203C1F536E52B241C
:100C3B0001FFE4352A8F82F5831203C1F53730B1FA
:100C4B000C30B00930B20630B303020AA430B10C39
:0E0C5B0030B00930B20630B303020AA4C295CD
:010C69002268
:100F5000E4F9E9C39408748094805063E9B408000C
:100F6000504D900F69F8282873020F81020F8502F7
:100F70000F8D020F91020F99020F9D020FA5020F14
:100F8000A9C2A28002D2A2C2A3C2A48022C2A2800D
:100F900002D2A2D2A3C2A48016C2A28002D2A2C24E
:100FA000A3D2A4800AC2A28002D2A2D2A3D2A4E970
:0F0FB00090094D93F580121137E4F58009809375
:010FBF00220F
:07123100D288D2A8D2AF223F
:030003000211FCEB
:1011FC00C0E0E53D7005753D018003753D00D0E014
:01120C0032AF
:040C6A008E098F0A56
:100C6E00780B7C007D007BFF7A09796E7E007F0514
:100C7E0012039BC3E5096480948050227FC0121238
:100C8E000D75992D3099FDC2997F2D121217E50A17
:100C9E00150A70021509630AFF6309FF80127FC0EF
:100CAE0012120D7F2B12121775992B3099FDC299C6
:100CBE00AC09AD0AEC1202118F158E148D138C1225
:100CCE00E4FFFE7DC87C40AB15AA14A913A812122E
:100CDE000106E4FBFAF9783F12001512024A8E095A
:100CEE008F0AAE09AF0A7C277D101204438F0BAE1C
:100CFE0009AF0A7C277D101204437E037FE8CFCD17
:100D0E00CFCECCCE1204438F0CAE09AF0A7C037D3E
:100D1E00E81204437E007F64CFCDCFCECCCE12043A
:100D2E00438F0DAE09AF0A7C007D641204437E0032
:100D3E007F0ACFCDCFCECCCE1204438F0EAE09AFED
:100D4E000A7C007D0A1204438D0F7FC212120DE53C
:100D5E000B2430FF121217E50B2430F5993099FD54
:100D6E00C2997FC312120DE50C2430FF121217E543
:100D7E000C2430F5993099FDC2997FC412120DE5FD
:100D8E000D2430FF121217E50D2430F5993099FD20
:100D9E00C2997FC512120D7F2E12121775992E3021
:100DAE0099FDC2997FC612120DE50E2430FF121264
:100DBE0017E50E2430F5993099FDC2997F841212F1
:100DCE000DE4F510F511744B2511F8E6FF1212170C
:100DDE000511E51170020510C39407E510648094A7
:100DEE008040E37FC712120DE50F2430FF12121759
:100DFE00E50F2430F5993099FDC2997FC812120D76
:100E0E007FDF1212177599DF3099FDC2997FC912D3
:100E1E00120D7F431212177599433099FDC299E452
:100E2E00FFEFC3940674809480500F743F2FF8E642
:0A0E3E00F5993099FDC2990F80E785
:010E48002287
:100FC00020B10F7F027E0012113B20B105E4F54AEB
:100FD000F53D20B0107F027E0012113B20B0067557
:100FE0004A01E4F53D20B2107F037E0012113B2040
:100FF000B206754A02E4F53D20B30C12113720B356
:0810000006754A03E4F53D22E8
:100ED5007508A4753D0112119A1212311211B67FCF
:100EE500C812120D7F43121217120FC0E53D705341
:100EF500E54A146012146017146030240370447BB3
:100F0500FF7A0579A5800E7BFF7A07790D80067B30
:100F1500FF7A0779E1750D00750E03750F017510E0
:100F250068E4FD1209731211378018120F5030B1A1
:100F35000630B00320B2F412113730B10630B003D9
:0B0F450020B2E81211CF120C6A809E4F
:10108E00C2A58F807F017E0012109FD2A77F057EA2
:01109E000051
:10109F00D3EF9400EE940040257DC7EDD3940074F8
:1010AF0080948040127C01ECD39400748094804033
:0E10BF00031C80F31D80E4EF1F70D51E80D24D
:0110CD002200
:0A120D00C2A7C2A612108EC2A722CB
:0A121700C2A7D2A612108EC2A722B1
:1011B6007F3812120D7F0C12120D7F0612120D7F50
:0911C6000112120D7F8002120DCE
:10117C00D3EF9400EE940040147D6E7C00ED1D7056
:0D118C00011CED4C70F7EF1F70E61E80E3B4
:011199002233
:10110C00C2B77F467E00EF1FAC0670011E4C70F616
:10111C00D2B7FEFF30B7110FBF00010ED3EF94888A
:0A112C00EE941340EF7F00227F01D4
:011136002296
:0C104C0012110C7F017E0012117C7FCC81
:10105800E4FBFAC2B7050BE50B7002050AEF139221
:10106800B7750A00750B06E50B150BAC0A7002156F
:101078000A4C70F3D2B7EFC313FF0BBB00010AEBA6
:0510880064084A70CE6F
:01108D002240
:1010CE007D087C00C2B70FBF0000D2B70FBF000073
:1010DE000FBF0000A2B7E433C43333335480FBE9AF
:1010EE00C3134BF97E007F04EF1FAA0670011E4A40
:0D10FE0070F6ED1D70011CED4C70C9AF01C6
:01110B0022C1
:0812210012104C7F440210582A
:0812290012104C7FBE021058A8
:1011CF00E4FFFE1212211212291210CE8F091210F3
:0611DF00CEEFFEE509FF62
:0111E50022E7
:10000E000202B6E86480F8E933E83360110460F068
:10001E00ED33EC337009E8FCE9FDEAFEEBFF220458
:10002E0060DED3EB9FEA9EE99DE8C2E78CF0C2F753
:10003E0095F0400CE8CCF8E9CDF9EACEFAEBCFFB1F
:10004E0012028185D0F05804700320D5B3E80470F5
:10005E00075002B2D50202C092D5EC0460F7E4CC90
:10006E00C0E0C398F8603B94186008400DD0E0FBE8
:10007E00020298E4FBFAC9FC8028E830E406E4C9E1
:10008E00FBE4CAFCE830E305E4C9CACBFCE854073C
:10009E006010F8C3E913F9EA13FAEB13FBEC13FC47
:1000AE00D8F130F52FC3E49CFCEF9BFFEE9AFEEDEA
:1000BE0099FDD0E0FBEF4E4D4C701222DB03020295
:1000CE00BDEC2CFCEF33FFEE33FEED33FDED30E7F0
:1000DE00EB020298EF2BFFEE3AFEED39FDD0E0FB7E
:1000EE0050130BBB00030202C0ED13FDEE13FEEF27
:0800FE0013FFEC13FC02029851
:10010600EC4D6011E8497017ED33EC3304600DE4F3
:10011600FCFFFEFD22E933E8330470F80202B61252
:10012600028158046009E4CC248150062850090253
:1001360002C02840030202BDC0E0EB4A7044B98009
:1001460006D0E0FB0202ACEF4E701CBD8008EBFF50
:10015600EAFEE9FD80EBE98DF0A4FEE5F00201EF91
:10016600E9CDF9EAFEEBFFEF89F0A4FCE5F0CE89D4
:10017600F0A42EFFE435F0CD89F0A42DFEE435F091
:100186008067EF4E7005BD80D780C3EF8BF0A4ACBF
:10019600F0EE8BF0A42CFCE435F0F8EF8AF0A42CFA
:1001A600E5F038FCE433CB8DF0A42CFCE5F03BF80D
:1001B600EE8AF0A42CFCE5F038F8E433CF89F0A4FD
:1001C6002CFCE5F038CF3400CE89F0A42FFFE5F003
:1001D6003EFEE433C98DF0A42EFEE5F039CD8AF05B
:1001E600A42FFFE5F03EFEE43DFD33D0E0FB5007D3
:1001F6000BBB000F0202C0EC2CFCEF33FFEE33FE0C
:06020600ED33FD02029839
:10020C0075F020800E75F010800575F0087D007E6D
:10021C00007F003392D530D5031204C8EC33401064
:10022C00EF33FFEE33FEED33FDEC33FCD5F0ED2276
:0E023C00E5F0247EA2D513CC92E7CDCEFF22B2
:10024A00EDD2E7CD33EC3392D524814006E4FFFEAC
:10025A00FDFC22FCE4CFCECDCC24E0501174FF800B
:10026A00EDC3CC13CCCD13CDCE13CECF13CF0470A8
:07027A00F030D5DE0204C8DC
:10028100E9D2E7C933E833F892D5EDD2E7CD33ECC3
:0702910033FC5002B2D5223C
:10029800EC30E7100FBF000C0EBE00080DBD0004C7
:1002A8000BEB6014A2D5EB13FCED92E7FD2274FF73
:1002B800FCFDFEFF22E480F8A2D574FF13FC7D80CC
:0302C800E480EFE0
:03000000020E49A4
:0C0E4900787FE4F6D8FD758151020E9010
:1002CB00E709F608DFFA8046E709F208DFFA803E15
:1002DB0088828C83E709F0A3DFFA8032E309F60802
:1002EB00DFFA8078E309F208DFFA807088828C836A
:1002FB00E309F0A3DFFA806489828A83E0A3F6081E
:10030B00DFFA805889828A83E0A3F208DFFA804CF7
:10031B0080D280FA80C680D4806980F280338010CE
:10032B0080A680EA809A80A880DA80E280CA803337
:10033B0089828A83ECFAE493A3C8C582C8CCC583AF
:10034B00CCF0A3C8C582C8CCC583CCDFE9DEE7807F
:10035B000D89828A83E493A3F608DFF9ECFAA9F0FE
:10036B00EDFB2289828A83ECFAE0A3C8C582C8CC54
:10037B00C583CCF0A3C8C582C8CCC583CCDFEADE6D
:10038B00E880DB89828A83E493A3F208DFF980CCCF
:10039B0088F0EF60010E4E60C388F0ED2402B404C8
:1003AB000050B9F582EB2402B4040050AF2323456F
:0603BB00822390031B7376
:1003C100BB010CE58229F582E5833AF583E02250F1
:1003D10006E92582F8E622BBFE06E92582F8E2223B
:0D03E100E58229F582E5833AF583E4932255
:1003EE00BC000BBE0029EF8DF084FFADF022E4CCF3
:1003FE00F875F008EF2FFFEE33FEEC33FCEE9DECBC
:10040E00984005FCEE9DFE0FD5F0E9E4CEFD22ED01
:10041E00F8F5F0EE8420D21CFEADF075F008EF2F4B
:10042E00FFED33FD4007985006D5F0F222C398FD3C
:05043E000FD5F0EA22D9
:10044300C2D5EC30E709B2D5E4C39DFDE49CFCEED4
:1004530030E715B2D5E4C39FFFE49EFE1203EEC35B
:10046300E49DFDE49CFC80031203EE30D507C3E456
:060473009FFFE49EFE2243
:10047900E88FF0A4CC8BF0A42CFCE98EF0A42CFC22
:100489008AF0EDA42CFCEA8EF0A4CDA8F08BF0A4A0
:100499002DCC3825F0FDE98FF0A42CCD35F0FCEBFF
:1004A9008EF0A4FEA9F0EB8FF0A4CFC5F02ECD39C4
:0F04B900FEE43CFCEAA42DCE35F0FDE43CFC2231
:10100800C2D5E830E70FB2D5E4C39BFBE49AFAE413
:1010180099F9E498F8EC30E717B2D512103E1205AA
:1010280012E4C39BFBE49AFAE499F9E498F8800384
:1010380012051230D50DE4C39FFFE49EFEE49DFD2A
:04104800E49CFC2206
:0E04C800C3E49FFFE49EFEE49DFDE49CFC2245
:100E5500020ED5E493A3F8E493A34003F68001F2D0
:100E650008DFF48029E493A3F85407240CC8C3339E
:100E7500C4540F4420C8834004F456800146F6DF6D
:100E8500E4800B01020408102040809011E6E47E06
:100E9500019360BCA3FF543F30E509541FFEE49362
:100EA500A360010ECF54C025E060A840B8E493A329
:100EB500FAE493A3F8E493A3C8C582C8CAC583CA54
:100EC500F0A3C8C582C8CAC583CADFE9DEE780BE0C
:0111FB0000F3
:1004D60075F008758200EF2FFFEE33FECD33CDCCDD
:1004E60033CCC58233C5829BED9AEC99E582984060
:1004F6000CF582EE9BFEED9AFDEC99FC0FD5F0D63D
:10050600E4CEFBE4CDFAE4CCF9A88222B800C1B966
:100516000059BA002DEC8BF084CFCECDFCE5F0CBA4
:10052600F97818EF2FFFEE33FEED33FDEC33FCEBDD
:1005360033FB10D703994004EB99FB0FD8E5E4F998
:10054600FA227818EF2FFFEE33FEED33FDEC33FC85
:10055600C933C910D7059BE99A4007EC9BFCE99A79
:10056600F90FD8E0E4C9FAE4CCFB2275F010EF2FBE
:10057600FFEE33FEED33FDCC33CCC833C810D707BE
:100586009BEC9AE899400AED9BFDEC9AFCE899F8F9
:0E0596000FD5F0DAE4CDFBE4CCFAE4C8F9228C
:00000001FF
